:020000040000FA
:020000001028C6
:10002000850107309F0003138316FF30850083127C
:02003000202886
:1000400086018316003086008312FF308600302838
:10006000851D3928051D4028851C4828051C4E285B
:100070004B28051D6928851C6928051C66286328EE
:10008000851C4528051C5A285728051C60285D2812
:10009000051C54285128813086003028CF30860036
:1000A0003028923086003028863086003028CC30C8
:1000B00086003028A43086003028A0308600302802
:1000C0008F30860030288030860030288C308600C3
:0800D0003028FF3086003028C3
:02400E00183F59
:00000001FF
